:020000040800F2
:1000000000500020D10B0008390A00083F0A000800
:10001000450A00084B0A0008510A000800000000C9
:10002000000000000000000000000000570A000867
:10003000630A0008000000006F0A00087B0A00083D
:10004000190C0008190C0008190C0008190C0008FC
:10005000190C0008190C0008190C0008190C0008EC
:10006000190C0008190C0008190C0008190C0008DC
:10007000190C0008190C0008190C0008190C0008CC
:10008000190C0008190C0008190C0008190C0008BC
:10009000190C0008190C0008190C0008190C0008AC
:1000A000190C0008190C0008190C0008190C00089C
:1000B000190C0008190C0008190C0008190C00088C
:1000C000190C0008190C0008190C0008190C00087C
:1000D000190C0008190C0008190C0008190C00086C
:1000E000190C0008190C0008190C00080000000089
:1000F0000000000000000000000000000000000000
:0C01000000000000000000005FF808F1A3
:10010C0010B5054C237833B9044B13B10448AFF345
:10011C0000800123237010BD70000020000000003F
:10012C006830000808B5034B1BB103490348AFF313
:10013C00008008BD0000000074000020683000083A
:10014C0010F8012B11F8013B012A28BF9A42F7D075
:10015C00D01A7047034613F8012B002AFBD1181A4A
:10016C0001387047B0B5ADF59E4D82B000AF9F4BD6
:10017C0007F59D4404F130041D460FCD0FC495E8DE
:10018C000F0007C4238002341B0C237007F53C536B
:10019C0003F10803A3F5F563954A1C4615460FCDEC
:1001AC000FC40FCD0FC40FCD0FC42B68237007F5F0
:1001BC003C5303F10803A3F2C4738E4A1C46154644
:1001CC000FCD0FC495E8070084E8070007F53C53F2
:1001DC0003F10803A3F5FE63874A1C4615460FCDB1
:1001EC000FC40FCD0FC495E8070003C4228000F0A4
:1001FC000FFD00F01DFB00F081FB00F055FB002310
:10020C0007F59E4202F10402136026E007F59D42B9
:10021C0002F1300207F59E4303F104031B681344FB
:10022C001B7819464FF0FF331E22744801F03EFC38
:10023C00734B1B689B68184601F00EFF4CF2503054
:10024C0000F048FD07F59E4303F104031B680133DE
:10025C0007F59E4202F10402136007F59D4202F17C
:10026C00300207F59E4303F104031B6813441B780B
:10027C00002BCBD100BF614B1B681B6803F0200324
:10028C00202BF8D107F1080101394FF0FF3301227F
:10029C005A4801F08EFC07F60873A3F601731B781D
:1002AC000A2B06D007F60873A3F601731B780D2BE7
:1002BC000CD107F59D4202F1500207F59E4303F164
:1002CC0004031B68134400221A70A6E207F6087395
:1002DC00A3F60173197807F59D4202F1500207F558
:1002EC009E4303F104031B6813440A461A7007F576
:1002FC009E4303F104031B68013307F59E4202F190
:10030C000402136007F59E4303F104031B68312BB1
:10031C000CDD07F59D4202F1500207F59E4303F1F7
:10032C0004031B68134400221A7076E207F59D4300
:10033C0003F150033349184602F029F9034603F53B
:10034C009E4303F108033B44002203F8382C07F5C5
:10035C009D4202F1500207F51F5303F10803283B9D
:10036C002949184602F0B0F8002307F59E4202F125
:10037C000402136024E007F53C5303F10803A3F5D2
:10038C00ED6207F59E4303F104031B6813441B78CD
:10039C00184602F075F81A4B1B689B68184601F05A
:1003AC005BFE42F2107000F095FC07F59E4303F1E2
:1003BC0004031B68013307F59E4202F1040213602B
:1003CC0007F53C5303F10803A3F5ED6207F59E43D3
:1003DC0003F104031B6813441B78002BCBD10023BF
:1003EC0007F59E4202F10402136034E0143A00084F
:1003FC00343A0008683A0008843A00088C0000205F
:10040C000C000020803000088430000807F53C53B5
:10041C0003F10803A3F5F56207F59E4303F104030A
:10042C001B6813441B78184602F02AF8CF4B1B6844
:10043C009B68184601F010FE4CF2503000F04AFC5C
:10044C0007F59E4303F104031B68013307F59E4235
:10045C0002F10402136007F53C5303F10803A3F502
:10046C00F56207F59E4303F104031B6813441B78E4
:10047C00002BCBD100BFBE4B1B681B6803F02003C5
:10048C00202BF8D107F1080102394FF0FF3301227C
:10049C00B74801F08EFB07F60873A3F602731B78BE
:1004AC000A2B11D007F60873A3F602731B780D2BD9
:1004BC000AD007F51F5303F10803343B1846FFF726
:1004CC0049FE0346092B11D907F51F5303F1080305
:1004DC00343B1846FFF73EFE024607F53C5303F14A
:1004EC000803A3F274730021995495E107F10801F4
:1004FC00023907F51F5303F10803343B0122184658
:10050C0002F056F807F51F5303F10803343B9949E1
:10051C001846FFF715FE0346002B0CD007F51F53AA
:10052C0003F10803343B94491846FFF709FE0346D0
:10053C00002B40F02981002307F59E4202F10402B2
:10054C00136024E007F53C5303F10803A3F2C472D3
:10055C0007F59E4303F104031B6813441B781846EC
:10056C0001F08EFF814B1B689B68184601F074FDEF
:10057C004CF2503000F0AEFB07F59E4303F1040340
:10058C001B68013307F59E4202F10402136007F564
:10059C003C5303F10803A3F2C47207F59E4303F125
:1005AC0004031B6813441B78002BCBD100BF704B8A
:1005BC001B681B6803F02003202BF8D107F10801FE
:1005CC0003394FF0FF330122694801F0F2FA07F6C4
:1005DC000873A3F603731B780A2B11D007F6087364
:1005EC00A3F603731B780D2B0AD007F51F5303F1E9
:1005FC000803343B1846FFF7ADFD0346092B11D910
:10060C0007F51F5303F10803343B1846FFF7A2FD0F
:10061C00024607F53C5303F10803A3F2747300215F
:10062C009954A1E007F10801033907F51F5303F1B1
:10063C000803343B0122184601F0BAFF07F51F539B
:10064C0003F10803343B4D491846FFF779FD034687
:10065C00002B0BD007F51F5303F10803343B48491B
:10066C001846FFF76DFD0346002B41D107F59D425F
:10067C0002F1500207F108034249184601F024FF29
:10068C00002307F59E4202F10402136022E007F6F4
:10069C000873A3F5706207F59E4303F104031B680E
:1006AC0013441B78184601F0EBFE304B1B689B681B
:1006BC00184601F0D1FC42F2107000F00BFB07F56C
:1006CC009E4303F104031B68013307F59E4202F1BC
:1006DC000402136007F60873A3F5706207F59E43D6
:1006EC0003F104031B6813441B78002BCFD13BE0B0
:1006FC00002307F59E4202F10402136024E007F583
:10070C003C5303F10803A3F2C47207F59E4303F1B3
:10071C0004031B6813441B78184601F0B1FE134BFD
:10072C001B689B68184601F097FC4CF2503000F0A7
:10073C00D1FA07F59E4303F104031B68013307F557
:10074C009E4202F10402136007F53C5303F10803C7
:10075C00A3F2C47207F59E4303F104031B68134410
:10076C001B78002BCBD121E756E000BF0C000020FA
:10077C008C000020843700088C3700089037000864
:10078C009C370008A437000807F51F5303F1080332
:10079C00343B25491846FFF7D3FC0346002B7FF466
:1007AC001EAE002307F59E4202F10402136024E002
:1007BC0007F53C5303F10803A3F5FE6207F59E43CE
:1007CC0003F104031B6813441B78184601F058FE10
:1007DC00164B1B689B68184601F03EFC4CF25030DF
:1007EC0000F078FA07F59E4303F104031B6801330C
:1007FC0007F59E4202F10402136007F53C5303F126
:10080C000803A3F5FE6207F59E4303F104031B687E
:10081C0013441B78002BCBD1F1E40023184607F5C9
:10082C009E470837BD46B0BD103A00080C000020AA
:10083C0080B590B000AF07F11803282200211846AC
:10084C0001F039FD3B1D00221A605A609A60DA6093
:10085C001A610223BB610123BB621023FB620023DC
:10086C007B6307F11803184600F0C0FC0346002B0D
:10087C0001D000F059F80F237B600023BB600023EC
:10088C00FB6000233B6100237B613B1D002118466C
:10089C0000F02EFF0346002B01D000F045F800BFFE
:1008AC004037BD4680BD000080B500AF114B124AE9
:1008BC001A60104B4FF4E1325A600E4B00229A60D2
:1008CC000C4B0022DA600B4B00221A61094B0C22F4
:1008DC005A61084B00229A61064B0022DA610548E6
:1008EC0001F094F80346002B01D000F01DF800BF76
:1008FC0080BD00BF8C0000200044004080B483B059
:10090C0000AF084B9B69074A43F004039361054B06
:10091C009B6903F004037B607B6800BF0C37BD460A
:10092C0080BC70470010024080B400AF72B600BFAC
:10093C00FEE7000080B485B000AF154B9B69144AEC
:10094C0043F001039361124B9B6903F00103BB60FD
:10095C00BB680F4BDB690E4A43F08053D3610C4BE1
:10096C00DB6903F080537B607B680A4B5B68FB6040
:10097C00FB6823F0E063FB60FB6843F00073FB60F3
:10098C00044AFB68536000BF1437BD4680BC7047F7
:10099C00001002400000014080B588B000AF7860C4
:1009AC0007F1100300221A605A609A60DA607B68C3
:1009BC001B681B4A93422FD11A4BDB69194A43F42B
:1009CC000033D361174BDB6903F40033FB60FB6826
:1009DC00144B9B69134A43F004039361114B9B69BD
:1009EC0003F00403BB60BB6804233B6102237B61FF
:1009FC000323FB6107F1100319460B4800F072FA50
:100A0C0008233B6100237B610023BB6107F11003CA
:100A1C001946054800F066FA00BF2037BD4680BD78
:100A2C0000440040001002400008014080B400AFB8
:100A3C00FEE780B400AFFEE780B400AFFEE780B401
:100A4C0000AFFEE780B400AFFEE780B400AF00BF9C
:100A5C00BD4680BC704780B400AF00BFBD4680BCB3
:100A6C00704780B400AF00BFBD4680BC704780B5F6
:100A7C0000AF00F013F900BF80BD80B586B000AFA9
:100A8C00F860B9607A6000237B610AE0AFF3008004
:100A9C000146BB685A1CBA60CAB21A707B69013332
:100AAC007B617A697B689A42F0DB7B681846183761
:100ABC00BD4680BD80B586B000AFF860B9607A6085
:100ACC0000237B6109E0BB685A1CBA601B7818468E
:100ADC00AFF300807B6901337B617A697B689A4252
:100AEC00F1DB7B6818461837BD4680BD80B483B0F7
:100AFC0000AF78604FF0FF3318460C37BD4680BC12
:100B0C00704780B483B000AF786039603B684FF4B5
:100B1C0000525A60002318460C37BD4680BC704703
:100B2C0080B483B000AF7860012318460C37BD4603
:100B3C0080BC704780B485B000AFF860B9607A6053
:100B4C00002318461437BD4680BC704780B586B06C
:100B5C0000AF7860144A154BD31A7B617B693B61FB
:100B6C00134B1B68002B02D1114B124A1A60104B0D
:100B7C001A687B6813443A699A4207D201F0A8F9C3
:100B8C0003460C221A604FF0FF3309E0084B1B6838
:100B9C00FB60074B1A687B681344054A1360FB68BB
:100BAC0018461837BD4680BD0050002000040000D8
:100BBC00D4000020F000002080B400AF00BFBD4680
:100BCC0080BC7047FFF7F8FF0B480C490C4A002318
:100BDC0002E0D458C4500433C4188C42F9D3094AE7
:100BEC00094C002301E013600432A242FBD301F054
:100BFC003BFBFFF7B7FA70470000002070000020A5
:100C0C007C3B000870000020EC000020FEE7000098
:100C1C0080B500AF084B1B68074A43F01003136004
:100C2C00032000F02BF90F2000F008F8FFF782FEEC
:100C3C000023184680BD00BF0020024080B582B062
:100C4C0000AF7860124B1A68124B1B7819464FF4A0
:100C5C007A73B3FBF1F3B2FBF3F3184600F035F9FA
:100C6C000346002B01D001230EE07B680F2B0AD822
:100C7C00002279684FF0FF3000F00BF9064A7B68D0
:100C8C001360002300E0012318460837BD4680BDE1
:100C9C0000000020080000200400002080B400AFF9
:100CAC00054B1B781A46054B1B681344034A13600B
:100CBC0000BFBD4680BC704708000020D800002053
:100CCC0080B400AF024B1B681846BD4680BC704711
:100CDC00D800002080B584B000AF7860FFF7F0FF3B
:100CEC00B8607B68FB60FB68B3F1FF3F05D00A4B33
:100CFC001B781A46FB681344FB6000BFFFF7E0FF4C
:100D0C000246BB68D31AFA689A42F7D800BF00BFF4
:100D1C001037BD4680BD00BF0800002080B485B0F0
:100D2C0000AF78607B6803F00703FB600C4BDB685B
:100D3C00BB60BA684FF6FF031340BB60FB681A0236
:100D4C00BB68134343F0BF6343F40033BB60044AF6
:100D5C00BB68D36000BF1437BD4680BC704700BF72
:100D6C0000ED00E080B400AF044BDB681B0A03F01D
:100D7C0007031846BD4680BC704700BF00ED00E07D
:100D8C0080B483B000AF03463960FB7197F907302C
:100D9C00002B0ADB3B68DAB20C4997F907301201D9
:100DAC00D2B20B4483F800230AE03B68DAB208495C
:100DBC00FB7903F00F03043B1201D2B20B441A76F9
:100DCC0000BF0C37BD4680BC704700BF00E100E09F
:100DDC0000ED00E080B489B000AFF860B9607A60D3
:100DEC00FB6803F00703FB61FB69C3F10703042BEA
:100DFC0028BF0423BB61FB690433062B02D9FB69B2
:100E0C00033B00E000237B614FF0FF32BB6902FA29
:100E1C0003F3DA43BB681A407B699A404FF0FF3109
:100E2C007B6901FA03F3D9437B680B4013431846E3
:100E3C002437BD4680BC704780B582B000AF786067
:100E4C007B68013BB3F1807F01D301230FE00A4A99
:100E5C007B68013B53600F214FF0FF30FFF790FF91
:100E6C00054B00229A60044B07221A600023184697
:100E7C000837BD4680BD00BF10E000E080B582B0F1
:100E8C0000AF78607868FFF749FF00BF0837BD46B0
:100E9C0080BD80B586B000AF0346B9607A60FB7345
:100EAC0000237B61FFF75EFF78617A68B968786927
:100EBC00FFF790FF024697F90F3011461846FFF7DF
:100ECC005FFF00BF1837BD4680BD80B582B000AF54
:100EDC0078607868FFF7B0FF034618460837BD46C0
:100EEC0080BD000080B48BB000AF78603960002307
:100EFC007B6200233B6269E101227B6A02FA03F305
:100F0C00FB613B681B68FA691340BB61BA69FB69FA
:100F1C009A4240F058813B685B689A4A93425ED093
:100F2C00984A934275D8984A934258D0964A93421D
:100F3C006FD8964A934252D0944A934269D8944AB5
:100F4C0093424CD0924A934263D8924A934246D0F1
:100F5C00904A93425DD8122B2AD8122B59D801A251
:100F6C0052F823F0EB0F0008C50F0008D70F00084C
:100F7C00191000081F1000081F1000081F1000088F
:100F8C001F1000081F1000081F1000081F10000879
:100F9C001F1000081F1000081F1000081F10000869
:100FAC001F1000081F100008CD0F0008E10F0008EB
:100FBC00794A934213D02CE03B68DB683B6229E012
:100FCC003B68DB6804333B6224E03B68DB68083336
:100FDC003B621FE03B68DB680C333B621AE03B680A
:100FEC009B68002B02D104233B6213E03B689B6897
:100FFC00012B05D108233B627B68FA691A6109E071
:10100C0008233B627B68FA695A6103E000233B6268
:10101C0000E000BFBB69FF2B01D87B6801E07B6857
:10102C0004337B61BB69FF2B02D87B6A9B0002E017
:10103C007B6A083B9B003B617B691A680F213B690B
:10104C0001FA03F3DB431A40396A3B6901FA03F3F3
:10105C001A437B691A603B685B6803F08053002B72
:10106C0000F0B1804D4B9B694C4A43F001039361F6
:10107C004A4B9B6903F00103BB60BB68484A7B6A1F
:10108C009B08023352F82330FB607B6A03F00303A6
:10109C009B000F2202FA03F3DB43FA681340FB6058
:1010AC007B68404A934213D07B683F4A93420DD0F1
:1010BC007B683E4A934207D07B683D4A934201D1FC
:1010CC00032306E0042304E0022302E0012300E0F2
:1010DC0000237A6A02F0030292009340FA681343E9
:1010EC00FB602F497B6A9B080233FA6841F8232086
:1010FC003B685B6803F48013002B06D02D4B9A6879
:10110C002C49BB6913438B6006E02A4B9A68BB6978
:10111C00DB43284913408B603B685B6803F4001386
:10112C00002B06D0234BDA682249BB691343CB60F2
:10113C0006E0204BDA68BB69DB431E491340CB60E9
:10114C003B685B6803F40033002B06D0194B5A68DC
:10115C001849BB6913434B6006E0164B5A68BB69D0
:10116C00DB43144913404B603B685B6803F48033EA
:10117C00002B21D00F4B1A680E49BB6913430B602F
:10118C0021E000BF000032100000311000002210DE
:10119C00000021100000121000001110001002407D
:1011AC000000014000080140000C0140001001400B
:1011BC0000140140000401400B4B1A68BB69DB436F
:1011CC00094913400B607B6A01337B623B681A68E8
:1011DC007B6A22FA03F3002B7FF48EAE00BF00BFB4
:1011EC002C37BD4680BC70470004014080B586B0EA
:1011FC0000AF78607B68002B01D1012372E27B6821
:10120C001B6803F00103002B00F08780924B5B6896
:10121C0003F00C03042B0CD08F4B5B6803F00C0316
:10122C00082B12D18C4B5B6803F48033B3F5803FF1
:10123C000BD1894B1B6803F40033002B6CD07B68FB
:10124C005B68002B68D101234CE27B685B68B3F5CB
:10125C00803F06D1804B1B687F4A43F48033136078
:10126C002EE07B685B68002B0CD17B4B1B687A4AA9
:10127C0023F480331360784B1B68774A23F4802364
:10128C0013601DE07B685B68B3F5A02F0CD1724B2B
:10129C001B68714A43F4802313606F4B1B686E4AC2
:1012AC0043F4803313600BE06B4B1B686A4A23F4E6
:1012BC0080331360684B1B68674A23F480231360E8
:1012CC007B685B68002B13D0FFF7FAFC386108E0F1
:1012DC00FFF7F6FC02463B69D31A642B01D90323B2
:1012EC0000E25D4B1B6803F40033002BF0D014E0DC
:1012FC00FFF7E6FC386108E0FFF7E2FC02463B69C9
:10130C00D31A642B01D90323ECE1534B1B6803F470
:10131C000033002BF0D100E000BF7B681B6803F0AA
:10132C000203002B63D04C4B5B6803F00C03002BC7
:10133C000BD0494B5B6803F00C03082B1CD1464BBC
:10134C005B6803F48033002B16D1434B1B6803F00E
:10135C000203002B05D07B681B69012B01D00123F4
:10136C00C0E13D4B1B6823F0F8027B685B69DB0036
:10137C00394913430B603AE07B681B69002B20D082
:10138C00364B01221A60FFF79BFC386108E0FFF72F
:10139C0097FC02463B69D31A022B01D90323A1E126
:1013AC002D4B1B6803F00203002BF0D02A4B1B685B
:1013BC0023F0F8027B685B69DB00274913430B6061
:1013CC0015E0264B00221A60FFF77AFC386108E022
:1013DC00FFF776FC02463B69D31A022B01D9032393
:1013EC0080E11D4B1B6803F00203002BF0D17B68DE
:1013FC001B6803F00803002B3AD07B689B69002B19
:10140C0019D0174B01221A60FFF75AFC386108E01B
:10141C00FFF756FC02463B69D31A022B01D9032372
:10142C0060E10D4B5B6A03F00203002BF0D001204E
:10143C0000F0CEFA1CE00A4B00221A60FFF740FCC9
:10144C0038610FE0FFF73CFC02463B69D31A022BD4
:10145C0008D9032346E100BF0010024000004242BD
:10146C0080044242924B5B6A03F00203002BE9D1E9
:10147C007B681B6803F00403002B00F0A68000239C
:10148C00FB758B4BDB6903F08053002B0DD1884B24
:10149C00DB69874A43F08053D361854BDB6903F0EA
:1014AC008053BB60BB680123FB75824B1B6803F444
:1014BC008073002B18D17F4B1B687E4A43F48073DA
:1014CC001360FFF7FDFB386108E0FFF7F9FB0246FC
:1014DC003B69D31A642B01D9032303E1754B1B68B9
:1014EC0003F48073002BF0D07B68DB68012B06D1F2
:1014FC006F4B1B6A6E4A43F0010313622DE07B684D
:10150C00DB68002B0CD16A4B1B6A694A23F0010380
:10151C001362674B1B6A664A23F0040313621CE0D8
:10152C007B68DB68052B0CD1614B1B6A604A43F06E
:10153C00040313625E4B1B6A5D4A43F001031362A2
:10154C000BE05B4B1B6A5A4A23F001031362584BA6
:10155C001B6A574A23F0040313627B68DB68002B79
:10156C0015D0FFF7ADFB38610AE0FFF7A9FB024687
:10157C003B69D31A41F28832934201D90323B1E07B
:10158C004B4B1B6A03F00203002BEED014E0FFF769
:10159C0097FB38610AE0FFF793FB02463B69D31ACD
:1015AC0041F28832934201D903239BE0404B1B6AE2
:1015BC0003F00203002BEED1FB7D012B05D13C4B3C
:1015CC00DB693B4A23F08053D3617B68DB69002BDA
:1015DC0000F08780364B5B6803F00C03082B61D05E
:1015EC007B68DB69022B46D1334B00221A60FFF774
:1015FC0067FB386108E0FFF763FB02463B69D31ACF
:10160C00022B01D903236DE0294B1B6803F00073F7
:10161C00002BF0D17B681B6AB3F5803F08D1244BBB
:10162C005B6823F400327B689B68214913434B6051
:10163C001F4B5B6823F474127B68196A7B685B6AC6
:10164C000B431B4913434B601B4B01221A60FFF7E2
:10165C0037FB386108E0FFF733FB02463B69D31ACE
:10166C00022B01D903233DE0114B1B6803F00073DF
:10167C00002BF0D035E0104B00221A60FFF720FB56
:10168C00386108E0FFF71CFB02463B69D31A022BBA
:10169C0001D9032326E0064B1B6803F00073002BD3
:1016AC00F0D11EE07B68DB69012B07D1012319E027
:1016BC000010024000700040600042420B4B5B681F
:1016CC00FB60FB6803F480327B681B6A9A4206D18C
:1016DC00FB6803F470127B685B6A9A4201D00123A9
:1016EC0000E0002318461837BD4680BD00100240AC
:1016FC0080B584B000AF786039607B68002B01D175
:10170C000123D0E06A4B1B6803F007033A689A4246
:10171C0010D9674B1B6823F0070265493B681343DC
:10172C000B60634B1B6803F007033A689A4201D0C5
:10173C000123B8E07B681B6803F00203002B20D068
:10174C007B681B6803F00403002B05D0594B5B68C6
:10175C00584A43F4E06353607B681B6803F008034A
:10176C00002B05D0534B5B68524A43F460535360D3
:10177C00504B5B6823F0F0027B689B684D49134328
:10178C004B607B681B6803F00103002B40D07B6827
:10179C005B68012B07D1474B1B6803F40033002B0C
:1017AC0015D101237FE07B685B68022B07D1414B8D
:1017BC001B6803F00073002B09D1012373E03D4B30
:1017CC001B6803F00203002B01D101236BE0394BA2
:1017DC005B6823F003027B685B68364913434B60FC
:1017EC00FFF76EFAF8600AE0FFF76AFA0246FB6848
:1017FC00D31A41F28832934201D9032353E02D4B83
:10180C005B6803F00C027B685B689B009A42EBD12F
:10181C00274B1B6803F007033A689A4210D2244BFB
:10182C001B6823F0070222493B6813430B60204BD3
:10183C001B6803F007033A689A4201D0012332E097
:10184C007B681B6803F00403002B08D0194B5B6802
:10185C0023F4E0627B68DB68164913434B607B68BA
:10186C001B6803F00803002B09D0124B5B6823F4B0
:10187C0060527B681B69DB000E4913434B6000F020
:10188C0021F802460B4B5B681B0903F00F030A4956
:10189C00CB5C22FA03F3094A1360094B1B68184608
:1018AC00FFF7CCF9002318461037BD4680BD00BFAA
:1018BC000020024000100240B03A00080000002056
:1018CC000400002080B487B000AF0023FB6000232D
:1018DC00BB6000237B6100237B6000233B611E4BBC
:1018EC005B68FB60FB6803F00C03042B02D0082B35
:1018FC0003D027E0194B3B6127E0FB689B0C03F0FE
:10190C000F03174AD35C7B60FB6803F48033002B16
:10191C0010D0114B5B685B0C03F00103114AD35CD4
:10192C00BB607B680D4A03FB02F2BB68B2FBF3F3AE
:10193C007B6104E07B680C4A02FB03F37B617B69EF
:10194C003B6102E0054B3B6100BF3B6918461C370D
:10195C00BD4680BC704700BF0010024000127A00E8
:10196C00C83A0008D83A000800093D0080B400AF1E
:10197C00024B1B681846BD4680BC70470000002017
:10198C0080B500AFFFF7F2FF0246054B5B681B0A00
:10199C0003F007030349CB5C22FA03F3184680BD1E
:1019AC0000100240C03A000880B500AFFFF7DEFF20
:1019BC000246054B5B68DB0A03F007030349CB5C6B
:1019CC0022FA03F3184680BD00100240C03A00080A
:1019DC0080B485B000AF78600A4B1B680A4AA2FB42
:1019EC0003235B0A7A6802FB03F3FB6000BFFB680E
:1019FC005A1EFA60002BF9D100BF00BF1437BD4648
:101A0C0080BC704700000020D34D621080B582B0BE
:101A1C0000AF78607B68002B01D1012342E07B682A
:101A2C0093F84130DBB2002B06D17B68002283F89F
:101A3C0040207868FEF7B0FF7B68242283F84120B1
:101A4C007B681B68DA687B681B6822F40052DA60DA
:101A5C00786800F0AFF97B681B681A697B681B68B3
:101A6C0022F490421A617B681B685A697B681B6878
:101A7C0022F02A025A617B681B68DA687B681B6853
:101A8C0042F40052DA607B6800225A647B682022A0
:101A9C0083F841207B68202283F842207B68002257
:101AAC005A63002318460837BD4680BD80B58AB0FE
:101ABC0002AFF860B9603B601346FB8000237B618A
:101ACC00FB6893F84130DBB2202B6DD1BB68002B47
:101ADC0002D0FB88002B01D1012366E0FB680022B9
:101AEC005A64FB68212283F84120FFF7E9F87861FA
:101AFC00FB68FA889A84FB68FA88DA84FB689B682E
:101B0C00B3F5805F08D1FB681B69002B04D100235F
:101B1C00FB61BB68BB6103E0BB68FB610023BB617D
:101B2C002AE03B6800937B6900228021F86800F072
:101B3C00D2F80346002B01D0032336E0FB69002BBF
:101B4C000BD1BB691B881A46FB681B68C2F30802E1
:101B5C005A60BB690233BB6107E0FB691A78FB680A
:101B6C001B685A60FB690133FB61FB68DB8C9BB221
:101B7C00013B9AB2FB68DA84FB68DB8C9BB2002BCE
:101B8C00CFD13B6800937B6900224021F86800F0BC
:101B9C00A2F80346002B01D0032306E0FB682022A9
:101BAC0083F84120002300E0022318462037BD466D
:101BBC0080BD80B58AB002AFF860B9603B60134657
:101BCC00FB8000237B61FB6893F84230DBB2202B57
:101BDC007CD1BB68002B02D0FB88002B01D10123E8
:101BEC0075E0FB6800225A64FB68222283F84220CD
:101BFC00FB6800221A63FFF763F87861FB68FA88C8
:101C0C009A85FB68FA88DA85FB689B68B3F5805F78
:101C1C0008D1FB681B69002B04D10023FB61BB6856
:101C2C00BB6103E0BB68FB610023BB6143E03B6825
:101C3C0000937B6900222021F86800F04CF80346E1
:101C4C00002B01D0032342E0FB69002B0CD1FB6875
:101C5C001B685B689BB2C3F308039AB2BB691A801A
:101C6C00BB690233BB611FE0FB689B68B3F5805F07
:101C7C0007D0FB689B68002B0AD1FB681B69002B03
:101C8C0006D1FB681B685B68DAB2FB691A7008E066
:101C9C00FB681B685B68DBB203F07F03DAB2FB699D
:101CAC001A70FB690133FB61FB68DB8D9BB2013B56
:101CBC009AB2FB68DA85FB68DB8D9BB2002BB6D140
:101CCC00FB68202283F84220002300E00223184600
:101CDC002037BD4680BD80B590B000AFF860B960CC
:101CEC003B601346FB7150E0BB6CB3F1FF3F4CD033
:101CFC00BB6C002B07D0FEF7E3FF02463B68D31A00
:101D0C00BA6C9A4241D2FB681B680C33BB62BB6A4B
:101D1C0053E8003F7B627B6A23F4D073FB63FB6860
:101D2C001B680C33FA6B7A633B63396B7A6B41E853
:101D3C000023FB62FB6A002BE5D1FB681B681433A4
:101D4C007B617B6953E8003F3B613B6923F00103F6
:101D5C00BB63FB681B681433BA6B3A62FB61F969AD
:101D6C003A6A41E80023BB61BB69002BE5D1FB68F3
:101D7C00202283F84120FB68202283F84220FB6854
:101D8C00002283F8402003230FE0FB681B681A68CD
:101D9C00BB681340BA689A420CBF01230023DBB224
:101DAC001A46FB799A429FD0002318464037BD460D
:101DBC0080BD000080B584B000AF78607B681B6884
:101DCC001B6923F440517B68DA687B681B680A4303
:101DDC001A617B689A687B681B691A437B685B692C
:101DEC001343BB607B681B68DB6823F4B05323F0A0
:101DFC000C037A681268B9680B43D3607B681B6864
:101E0C005B6923F440717B689A697B681B680A43A1
:101E1C005A617B681B682C4A934203D1FFF7C4FDBF
:101E2C00F86002E0FFF7ACFDF860FA6813469B001F
:101E3C0013449A001A447B685B689B00B2FBF3F373
:101E4C00224AA2FB03235B091901FA6813469B0083
:101E5C0013449A001A447B685B689B00B2FBF3F254
:101E6C001A4BA3FB02035B09642000FB03F3D31A98
:101E7C001B013233154AA2FB03235B0903F0F00369
:101E8C001944FA6813469B0013449A001A447B6861
:101E9C005B689B00B2FBF3F20C4BA3FB02035B09E8
:101EAC00642000FB03F3D31A1B013233074AA2FB55
:101EBC0003235B0903F00F027B681B680A449A60DA
:101ECC0000BF1037BD4680BD003801401F85EB5167
:101EDC00014B1868704700BF0C0000208A89F8B5C8
:101EEC00054610070C4657D44B68002B04DC0B6CD2
:101EFC00002B01DC0020F8BDE66A002EFAD000238E
:101F0C0012F480522F682B6032D0606DA3895A076F
:101F1C0005D56368C01A636B0BB1236CC01A002320
:101F2C000246E66A2846216AB047431CA38906D1BB
:101F3C0029681D292CD8294ACA40D60728D5002241
:101F4C0062602269D904226004D5421C01D12B683D
:101F5C0003B96065616B2F600029CBD004F1440399
:101F6C00994202D0284600F0AFF900206063C2E726
:101F7C00216A01232846B047411CC7D12B68002B8E
:101F8C00C4D01D2B01D0162B01D12F60B2E7A38931
:101F9C0043F04003A381AEE70F69002FAAD093074B
:101FAC0018BF00230E6808BF4B69F61B0F608B60CF
:101FBC00002E9FDD33463A462846216AD4F828C0C5
:101FCC00E047002806DCA3894FF0FF3043F04003C4
:101FDC00A38190E70744361AEAE700BF01004020CE
:101FEC0038B50B6905460C4613B90025284638BD93
:101FFC0018B183690BB900F099F8144B9C421BD1B2
:10200C006C68B4F90C30002BEFD0626ED00704D49E
:10201C00990502D4A06D00F04CF928462146FFF733
:10202C005DFF636E0546DA07E0D4A3899B05DDD41A
:10203C00A06D00F03FF9D9E7054B9C4201D1AC688B
:10204C00DFE7044B9C4208BFEC68DAE7FC3A000877
:10205C001C3B0008DC3A0008014620B9044B05493A
:10206C00186800F0E1B8044B1868FFF7B9BF00BF5F
:10207C003C3B0008ED1F00080C000020002310B5AD
:10208C000446C0E90033C0E90433836081814366B0
:10209C00C2818361194608225C3000F00CF9054BB3
:1020AC0024626362044BA362044BE362044B23631C
:1020BC0010BD00BF15250008372500086F25000846
:1020CC0093250008014900F0AFB800BFED1F0008D0
:1020DC00682270B54D1E55430E4605F1740100F093
:1020EC005BF9044640B10021C0E900160C30A06039
:1020FC0005F1680200F0DFF8204670BD014800F0E1
:10210C00D8B800BFDD000020014800F0D3B800BFF4
:10211C00DD000020014800F0CCB800BFDE0000203C
:10212C00014800F0C7B800BFDE00002010B504461F
:10213C00FFF7F0FFA3691BB1BDE81040FFF7F0BF3C
:10214C00C4E912332365134B134A1B68A262A342E2
:10215C0008BF0123204608BFA36100F01FF8606090
:10216C00204600F01BF8A060204600F017F8002273
:10217C000421E0606068FFF781FF01220921A0685B
:10218C00FFF77CFF02221221E068FFF777FF0123A3
:10219C00A361D1E73C3B0008D1200008F8B5074605
:1021AC00FFF7ACFF1E4B1E68B36913B93046FFF73F
:1021BC00BDFF4836D6E90134013B03D533680BB378
:1021CC003668F7E7B4F90C50D5B9164B04F1580042
:1021DC00E360656600F06CF8FFF796FF082229466D
:1021EC00C4E90155C4E904552560A56104F15C00FE
:1021FC0000F061F8C4E90D55C4E912552046F8BD4C
:10220C006834D9E704213846FFF762FF0446306092
:10221C000028D5D1FFF778FF0C233B60EEE700BF19
:10222C003C3B00080100FFFF2DE9F84306468846B9
:10223C00002700F14804D4E90195B9F1010905D54D
:10224C002468002CF7D13846BDE8F883AB89012B04
:10225C0007D9B5F90E30013303D029463046C047B3
:10226C0007436835E9E7000070B500260C4D0D4CAE
:10227C00641BA410A64209D100F0F0FE00260A4D02
:10228C000A4C641BA410A64205D170BD55F8043B42
:10229C0098470136EEE755F8043B98470136F2E7CC
:1022AC00743B0008743B0008743B0008783B000842
:1022BC0070477047704703460244934200D1704701
:1022CC0003F8011BF9E7000038B50546002940D09A
:1022DC0051F8043C0C1F002BB8BFE41800F0B0F907
:1022EC001C4A136833B9636014602846BDE8384053
:1022FC0000F0ACB9A34208D9206821188B4201BF69
:10230C0019685B6809182160EDE71A465B680BB128
:10231C00A342FAD911685018A0420BD1206801448D
:10232C00501883421160E0D118685B680144116059
:10233C005360DAE702D90C232B60D6E7206821180A
:10234C008B4201BF19685B68091821606360546097
:10235C00CBE738BDE000002070B50E4E0C4631685E
:10236C00054611B900F0A0F830602146284600F06F
:10237C009BF8431C0AD0C41C24F00304A04207D0D1
:10238C00211A284600F090F8013001D14FF0FF34AB
:10239C00204670BDE40000202DE9F041CD1C25F055
:1023AC00030508350C2D38BF0C25002D074601DB25
:1023BC00A94205D90C2300263B603046BDE8F081CC
:1023CC002E4E00F03DF933681C4634BB2946384686
:1023DC00FFF7C2FF431C04464DD134682646002E3D
:1023EC0040D123683146384604EB030800F05CF812
:1023FC0080453AD1216803356D1A25F0030508355F
:10240C000C2D38BF0C2538462946FFF7A5FF0130A7
:10241C002BD023682B4423600EE02268521B1ED461
:10242C000B2A16D96119A342256018BF596063683D
:10243C0008BF316062514B60384604F10B0600F066
:10244C0005F926F00706231DF21AB6D09B1BA350E4
:10245C00B3E76268A3420CBF32605A60ECE72346D4
:10246C006468B2E734467668B9E70C2338463B60BB
:10247C0000F0ECF8A1E72560DEE700BFE0000020EB
:10248C0038B5084B05461C6824B1A36913B920461E
:10249C00FFF74CFE29462046A268BDE8384000F004
:1024AC00CDBB00BF0C00002038B50023054D044601
:1024BC0008462B60FEF74AFB431C02D12B6803B184
:1024CC00236038BDE80000200EB46FF0004100B569
:1024DC009CB01DAB029006900791049108480949E5
:1024EC0053F8042B0591006802A9019300F010F930
:1024FC000022029B1A701CB05DF804EB03B070470D
:10250C000C0000200802FFFF10B50C46B1F90E10AC
:10251C0000F0DCFB0028ABBF636DA3891B1823F410
:10252C008053ACBF6365A38110BD2DE9F0411F46FC
:10253C008B890546DB050C46164605D50223002281
:10254C00B1F90E1000F06AF8A389324623F48053D7
:10255C00A38128463B46B4F90E10BDE8F04100F0CB
:10256C003BB810B50C46B1F90E1000F057F8431CEF
:10257C00A38915BF606523F4805343F48053A38172
:10258C0018BFA38110BDB1F90E1000F037B8034687
:10259C0070B51E4613F8014B44B14A1E01E0A5422A
:1025AC0004D012F8015F002DF9D1F2E7301A70BD9A
:1025BC0030B50446257823460134002DFAD1013A72
:1025CC0004D311F8014B03F8014B04B930BD002AB8
:1025DC00F5D11A70F3E7000038B5044608461146E9
:1025EC000022054D2A601A46FEF764FA431C02D1FC
:1025FC002B6803B1236038BDE800002038B50023F8
:10260C00054D044608462B60FEF770FA431C02D1B8
:10261C002B6803B1236038BDE800002038B50446B0
:10262C00084611460022054D2A601A46FEF782FA2A
:10263C00431C02D12B6803B1236038BDE800002095
:10264C000148FFF736BE00BFDC0000200148FFF751
:10265C0031BE00BFDC0000202DE9F0478E688246B9
:10266C009E420C4690461F4638D88A8912F4906FC9
:10267C0032D0256809690133A5EB010965694B4422
:10268C0005EB450505EBD5756D109D4238BF1D4614
:10269C00530531D52946FFF77FFE064650B90C236A
:1026AC004FF0FF30CAF80030A38943F04003A381F8
:1026BC00BDE8F0874A46216900F04EFCA38923F45B
:1026CC00906343F08003A38126614E4426603E460E
:1026DC006561A5EB0905A560BE4200D93E463246B0
:1026EC004146206800F046FCA36800209B1BA360B9
:1026FC00236833442360DBE72A4600F055FC06468A
:10270C000028E1D150462169FFF7DEFDC7E7000044
:10271C002DE9F04F98468B8907461B060D4614464B
:10272C009DB00ED50B6963B94021FFF735FE2860CB
:10273C00286120B90C233B604FF0FF30D1E04023DF
:10274C006B610023099320238DF8293030234FF03F
:10275C000109CDF80C80DFF8A4818DF82A302346CE
:10276C009A4613F8012B0AB1252AF9D1BAEB040BBE
:10277C000BD05B46224629463846FFF76DFF0130E9
:10278C0000F0AA80099A5A4409929AF80030002B5A
:10279C0000F0A28000234FF0FF32CDE905230AF1AF
:1027AC00010A049307938DF853301A93544605226B
:1027BC0014F8011B514800F0C1FB049AD8B9D0069B
:1027CC0044BF20238DF85330110744BF2B238DF8C1
:1027DC0053309AF800302A2B15D0544600204FF075
:1027EC000A0C079A214611F8013B303B092B4ED9B4
:1027FC00B0B1079214E0A0EB080309FA03F31343FA
:10280C00A2460493D2E7039B191D1B680391002B6E
:10281C00BBBF5B4242F0020207930793B8BF04921E
:10282C0023782E2B0CD163782A2B35D1039B0234C1
:10283C001A1D1B680392002BB8BF4FF0FF33059392
:10284C00DFF8BCA003225046217800F077FB40B1A2
:10285C004023A0EB0A0003FA00F0049B013403436D
:10286C00049314F8011B062226488DF8281000F05A
:10287C0065FB002838D0244B1BBB039B073323F08C
:10288C00070308330393099B3344099367E70C460A
:10289C0001200CFB0232A5E700234FF00A0C19466D
:1028AC0001340593204610F8012B303A092A03D93C
:1028BC00002BC5D00591C3E7044601230CFB012175
:1028CC00F0E703AB00932A463846104B04A9AFF34C
:1028DC000080421C0646D6D1AB895B063FF52CAF77
:1028EC0009981DB0BDE8F08F03AB00932A4638461B
:1028FC00064B04A900F07CF8EBE700BF403B000856
:10290C00463B00084A3B0008000000006526000812
:10291C002DE9F047164699468A680B69074693429B
:10292C00B8BF1346336091F843200C46DDF8208085
:10293C000AB1013333602368990642BF336802330E
:10294C003360256815F0060506D104F1190AE36811
:10295C0032689B1AAB4228DC94F84320131E226881
:10296C0018BF012392062DD44946384604F1430280
:10297C00C047013020D02368E56803F00603042B20
:10298C0018BF002532684FF00006A36808BFAD1AC7
:10299C00226908BF25EAE5759342C4BF9B1AED185E
:1029AC001A34B5421AD1002008E001235246494698
:1029BC003846C047013003D14FF0FF30BDE8F087F7
:1029CC000135C4E73020E11881F843005A1C94F813
:1029DC0045102244023382F84310C5E701232246F6
:1029EC0049463846C0470130E6D00136D9E70000E9
:1029FC002DE9FF470F7E9146782F80460C469A466C
:102A0C000C9D01F1430207D8622F0AD8002F00F069
:102A1C00D980582F00F0A48004F1420584F842704C
:102A2C003AE0A7F16303152BF6D801A151F823F076
:102A3C00952A0008A92A0008252A0008252A00083A
:102A4C00252A0008252A0008A92A0008252A00089A
:102A5C00252A0008252A0008252A0008B72B00087B
:102A6C00D92A0008992B0008252A0008252A0008D5
:102A7C00D92B0008252A0008D92A0008252A000885
:102A8C00252A0008A12B00082B681A1D1B682A6038
:102A9C0004F1420584F842300123A4E0206829683F
:102AAC00060601F104030AD50E682B60002E03DA2A
:102ABC002D23764284F843300A235E4819E00E68D1
:102ACC0010F0400F2B6018BF36B2EFE72B68206870
:102ADC00191D2960010601D51E6802E04606FBD5CA
:102AEC001E886F2F0CBF08230A235248002184F83C
:102AFC0043106568002DA8BF2168A560A4BF21F014
:102B0C00040121600EB9002D4DD01546B6FBF3F132
:102B1C0003FB1167C75D05F8017D3746BB420E46C6
:102B2C00F4D9082B0BD12368DE0708D5236961681B
:102B3C009942DEBF302305F8013C05F1FF35521BED
:102B4C0022614B4621464046CDF800A003AAFFF770
:102B5C00DFFE01304CD14FF0FF3004B0BDE8F08700
:102B6C00344881F845702968236851F8046B296052
:102B7C001D0614D5DF0744BF43F0200323601EB9A4
:102B8C00236823F0200323601023AFE7236843F06E
:102B9C00200323607823284884F84530E3E759065E
:102BAC0048BFB6B2E6E71546BBE72B682668181D8A
:102BBC006169286035061B6801D5196002E0700652
:102BCC00FBD51980002315462361BAE72B68002139
:102BDC001A1D2A601D686268284600F0AFF908B11A
:102BEC00401B606063682361002384F84330A8E7CE
:102BFC002A46494640462369D0470130ABD023686A
:102C0C009B0713D4E068039B9842B8BF1846A4E70F
:102C1C000123324649464046D04701309BD001350E
:102C2C00E36803995B1AAB42F2DCEBE7002504F195
:102C3C001906F5E7513B0008623B000870B50D46DC
:102C4C001446064618B183690BB9FFF76FFA1C4B93
:102C5C009C4224D17468636ED80705D4A389990566
:102C6C0002D4A06DFFF725FBA368013B002BA360EA
:102C7C0005DAA26993421CDBEBB20A2B19D023684C
:102C8C005A1C22601D70EDB2636EDA0705D4A3895D
:102C9C009B0502D4A06DFFF70DFB284670BD094BB8
:102CAC009C4201D1B468D6E7074B9C4208BFF4683C
:102CBC00D1E729462246304600F01AF80546E3E7EC
:102CCC00FC3A00081C3B0008DC3A000838B5044606
:102CDC00084611460022054D2A601A46FDF7CDFE26
:102CEC00431C02D12B6803B1236038BDE8000020DF
:102CFC00F8B50E461446054618B183690BB9FFF7B3
:102D0C0015FA214B9C422BD16C68A369A360A38953
:102D1C001A072FD523696BB323692068F6B2C01A42
:102D2C0063693746834204DC21462846FFF758F98D
:102D3C0030BBA3680130013BA36023685A1C22609E
:102D4C001E706369834204D0A389DB0706D50A2E63
:102D5C0004D121462846FFF743F988B93846F8BD17
:102D6C000A4B9C4201D1AC68CFE7094B9C4208BF8F
:102D7C00EC68CAE72146284600F00CF80028CBD0B6
:102D8C004FF0FF37EAE700BFFC3A00081C3B000895
:102D9C00DC3A0008324B70B51D6806460C4625B16E
:102DAC00AB6913B92846FFF7C1F92E4B9C420FD1E2
:102DBC006C68A389B4F90C2019072CD4DD0611D446
:102DCC000923336042F040034FF0FF30A3813EE013
:102DDC00254B9C4201D1AC68EBE7244B9C4208BFCD
:102DEC00EC68E6E7580712D5616B41B104F1440376
:102DFC00994202D03046FFF767FA00236363A38938
:102E0C0023F02403A3810023636023692360A38937
:102E1C0043F00803A38123694BB9A38903F42073FE
:102E2C00B3F5007F03D02146304600F047F8A08967
:102E3C00B4F90C2010F001030AD00023A3606369DD
:102E4C005B42A361236943B910F08000BAD170BD15
:102E5C00810758BF6369A360F4E70020F7E700BF60
:102E6C000C000020FC3A00081C3B0008DC3A00086F
:102E7C0070B50E46B1F90E10144600291D4696B0D9
:102E8C0008DA0022B6F90C302A601A0610D44FF476
:102E9C0080630EE06A4600F0B7F80028F1DB019A77
:102EAC0002F47042A2F500535A425A412A60EEE7EE
:102EBC0040230020236016B070BD00008B8973B5D1
:102ECC009D0706460C4607D504F147032360236192
:102EDC000123636102B070BD6A4601ABFFF7C8FF06
:102EEC00009905463046FFF757FA48B9B4F90C304B
:102EFC009A05EFD423F0030343F00203A381E3E725
:102F0C000D4BB362A389206043F08003A381009B27
:102F1C0020616361019B5BB13046B4F90E1000F087
:102F2C0085F828B1A38923F0030343F00103A3819F
:102F3C00A0890543A581CDE7D1200008034610B533
:102F4C00C9B202449342184601D1002003E0047830
:102F5C0001338C42F6D110BD0A44914200F1FF338B
:102F6C0000D1704710B511F8014B914203F8014F95
:102F7C00F9D110BD884210B501EB020402D984428C
:102F8C00234607D8431EA14208D011F8012B03F8A1
:102F9C00012FF8E7014602448A4200D110BD13F814
:102FAC00014D02F8014DF7E72DE9F041804614463A
:102FBC000E4621B91146BDE8F041FFF7EDB92AB92B
:102FCC00FFF782F925462846BDE8F08100F03EF86F
:102FDC008442074602D8B4EB500F12D82146404623
:102FEC00FFF7DAF905460028EDD0BC4222463146FF
:102FFC0028BF3A46FFF7B0FF31464046FFF764F969
:10300C00E1E73546DFE7000038B50023064D0446FE
:10301C00084611462B60FDF774FD431C02D12B684A
:10302C0003B1236038BD00BFE800002038B5002391
:10303C00054D044608462B60FDF772FD431C02D17A
:10304C002B6803B1236038BDE800002051F8043C24
:10305C00181F002BBCBF0B58C0187047F8B500BF29
:10306C00F8BC08BC9E467047F8B500BFF8BC08BC5D
:04307C009E467047B5
:103080000A000000486572652061726520736F6DEB
:1030900065207769736520776F7264732062792089
:1030A00074776F2066616D6F75732070656F706CDB
:1030B000652C2025733A0A200A2020202020202079
:1030C000202020496E2074686520776F726C642020
:1030D0006F6620656C656374726F6E6963732C2014
:1030E000746865204A6F6B657220776F756C642019
:1030F0007361792074686174207765277265206137
:103100006C6C206A75737420612062756E63682030
:103110006F66206372696D696E616C732E205765EE
:1031200020757365205541525420636F6D6D756E27
:1031300069636174696F6E2070726F746F636F6C16
:103140007320746F2074616B6520616476616E74A6
:10315000616765206F6620612073657276696365BB
:103160002074686174277320616C726561647920D2
:10317000617661696C61626C6520776974686F75EE
:103180007420706179696E6720666F7220736F6D4D
:10319000657468696E6720746861742073686F7500
:1031A0006C6420626520667265652E20427574200D
:1031B0006973206974207265616C6C792074686130
:1031C000742073696D706C653F200A200A20554198
:1031D00052542C206C696B65207468652065787189
:1031E0007569736974652062617564206F66207407
:1031F000686520656C656374726F6E696320776FB4
:10320000726C642C206973206120746F6F6C207461
:103210006861742077652063616E20757365207422
:103220006F20636F6D6D756E69636174652077697A
:1032300074686F75742062696173206F7220707298
:10324000656A75646963652E20497427732061205F
:1032500070726F746F636F6C20746861742065782E
:103260006973747320776974686F757420736B6900
:103270006E20636F6C6F722C20636F756E74727941
:10328000206F722072656C6967696F757320616663
:1032900066696C696174696F6E2E2057652075735D
:1032A0006520697420746F207365656B206B6E6F89
:1032B000776C6564676520616E6420746F20636F4E
:1032C0006E6E6563742077697468206F6E65206127
:1032D0006E6F7468657220696E206E657720616E0E
:1032E00064206578636974696E6720776179732EED
:1032F0000A200A20427574206A757374206C696B09
:103300006520746865204A6F6B65722C207765278D
:103310007265206F6674656E2061636375736564A2
:10332000206F66206265696E67206372696D696EE1
:10333000616C732073696D706C7920666F722065A3
:1033400078706C6F72696E6720746865206C696D47
:10335000697473206F6620746869732070726F746B
:103360006F636F6C2E2057652772652063616C6CEC
:103370006564206861636B6572732C206F722077BF
:103380006F7273652C2073696D706C792062656350
:10339000617573652077652077616E7420746F2086
:1033A0006B6E6F772077686174277320706F73730B
:1033B00069626C652E200A200A20546865207472A8
:1033C0007574682069732C205541525420636F6DC9
:1033D0006D756E69636174696F6E2070726F746F62
:1033E000636F6C7320617265206120706F77657206
:1033F00066756C20746F6F6C2074686174206361F3
:103400006E206265207573656420666F7220626F3E
:10341000746820676F6F6420616E64206261642E3F
:10342000204A757374206C696B6520616E79207415
:103430006563686E6F6C6F67792C206974277320E1
:10344000757020746F20757320746F2064656369D4
:10345000646520686F7720776520757365206974CF
:103460002E2057696C6C2077652075736520697410
:1034700020746F20646576656C6F70206C6966657A
:103480002D736176696E67206D65646963616C2078
:1034900064657669636573206F7220746F20637250
:1034A00065617465206E6577206F70706F727475DA
:1034B0006E697469657320666F72206564756361F7
:1034C00074696F6E20616E6420636F6D6D756E69D7
:1034D000636174696F6E3F204F722077696C6C2056
:1034E00077652075736520697420746F207065722C
:1034F00070657472617465206372696D65732061B3
:103500006E64206361757365206368616F733F0A41
:10351000200A20417320746865204A6F6B65722011
:10352000736169642C202749742773206E6F74209F
:1035300061626F7574206D6F6E65792E20497427F6
:10354000732061626F75742073656E64696E6720A5
:1035500061206D6573736167652E2720496E207445
:10356000686520776F726C64206F662055415254F5
:103570002C20746865206D657373616765207765BD
:103580002073656E6420697320757020746F2075D8
:10359000732E2057652063616E2063686F6F7365BB
:1035A00020746F2075736520746869732070726F62
:1035B000746F636F6C20746F206272696E67207025
:1035C000656F706C6520746F676574686572206FD5
:1035D0007220746F2074656172207468656D20615B
:1035E000706172742E2057652063616E207573655B
:1035F00020697420746F207368617265206B6E6F30
:10360000776C6564676520616E6420746F206275F5
:10361000696C6420612062657474657220667574DB
:103620007572652C206F722077652063616E20753E
:10363000736520697420746F2073707265616420F3
:103640006861746520616E6420646573747275636B
:1036500074696F6E2E0A200A20536F206C657427E0
:10366000732074616B652061206375652066726FDD
:103670006D20746865204A6F6B657220616E6420EE
:10368000656D627261636520746865206D61646E4A
:10369000657373206F66205541525420636F6D6DC2
:1036A000756E69636174696F6E2070726F746F6399
:1036B0006F6C732E204C65742773207573652074AE
:1036C00068656D20746F207075736820746865205C
:1036D0006C696D697473206F6620776861742773F5
:1036E00020706F737369626C6520616E6420746F03
:1036F00020637265617465206120776F726C64204D
:10370000746861742773206D6F726520636F6E6ECD
:10371000656374656420616E64206D6F72652069F5
:103720006E636C75736976652E20416E64206C65DE
:1037300074277320646F20697420616C6C20776932
:103740007468206120736D696C65206F6E206F75E1
:10375000722066616365732C206A757374206C69CE
:103760006B6520746865204A6F6B657220776F7592
:103770006C6420686176652077616E7465642E0ADA
:10378000200A20007965730A0000000079610A00B0
:103790007468616E6B796F750A0000007468616E01
:1037A0006B730A000A2025732C207930752077313D
:1037B0006C6C206E333364203768313520743020D0
:1037C00063306E74316E75332079307572206A30D3
:1037D00075726E33790A207E7E7E7E7E7E7E7E7E50
:1037E0007E7E7E7E7E7E7E7E7E7E7E7E7E7E7E7EF9
:1037F0007E7E7E7E7E7E7E7E7E7E7E7E7E7E7E7EE9
:103800007E7E7E7E7E7E7E7E7E7E7E7E7E7E0A20AA
:10381000205F5F5F5F5F202020202020202020206D
:103820002020202020202020202020202020202098
:103830002020205F2020202020205F5F5F5F5F200E
:103840002020205F5F5F5F5F0A202F20205F5F20C6
:103850005C2020202020202020202020202020202C
:103860002020202020202020202020207C207C20A0
:103870002020207C5F2020205F7C20207C5F202077
:10388000205F7C0A207C202F20205C2F205F5F5F40
:1038900020205F205F5F205F5F5F20205F205F5FF1
:1038A0002020205F5F205F7C207C5F205F205F5FA7
:1038B0007C207C20205F5F5F207C207C0A207C2095
:1038C0007C202020202F205F205C7C20275F206030
:1038D000205F205C7C20275F205C202F205F602001
:1038E0007C205F5F7C20275F5F7C207C202F205F17
:1038F000205C7C207C0A207C205C5F5F2F5C202881
:103900005F29207C207C207C207C207C207C207CEB
:103910005F29207C20285F7C207C207C5F7C207CB1
:10392000205F7C207C7C20285F29207C207C0A2052
:10393000205C5F5F5F5F2F5C5F5F5F2F7C5F7C2041
:103940007C5F7C207C5F7C202E5F5F2F205C5F5F34
:103950002C5F7C5C5F5F7C5F7C205C5F5F5F2F5CCB
:103960005F5F5F2F5C5F2F0A202020202020202017
:103970002020202020202020202020202020207CEB
:10398000207C0A20202020202020202020202020F1
:10399000202020202020202020207C5F7C0A200A5C
:1039A00020636F6D70617472496F547B77336C6301
:1039B000306D335F37305F3768335F7730726C64F8
:1039C0005F30665F68347264773472335F68346383
:1039D0006B316E677D0A207E7E7E7E7E7E7E7E7E61
:1039E0007E7E7E7E7E7E7E7E7E7E7E7E7E7E7E7EF7
:1039F0007E7E7E7E7E7E7E7E7E7E7E7E7E7E7E7EE7
:103A00007E7E7E7E7E7E7E7E7E7E7E7E7E7E0A00C8
:103A10006E6F0A0077683437207368307531642020
:103A2000492063616C6C20793075206834636B3396
:103A3000723F000073302064302079307520346389
:103A40003775346C6C792077616E74207430206225
:103A5000652061206834726477347265206834634D
:103A60006B33723F0000000067303064206C756378
:103A70006B20306E2079307572206A3075726E332B
:103A800079203A0020C2AF5C5F28E38384295F2F4E
:103A9000C2AF206E6F20666C6167207468656E200F
:103AA000C2AF5C5F28E38384295F2FC2AF000000B0
:103AB00000000000000000000102030406070809DE
:103AC00000000000010203040203040506070809C0
:103AD0000A0B0C0D0E0F1010010200000000000078
:103AE00000000000000000000000000000000000D6
:103AF00000000000000000000000000000000000C6
:103B000000000000000000000000000000000000B5
:103B100000000000000000000000000000000000A5
:103B20000000000000000000000000000000000095
:103B30000000000000000000000000001000002055
:103B4000232D302B2000686C4C0065666745464786
:103B50000030313233343536373839414243444509
:103B60004600303132333435363738396162636478
:043B70006566000086
:043B74003101000813
:043B78000D01000833
:103B7C000024F400100000000100000010000020E0
:103B8C0000000000FC3A00081C3B0008DC3A00086E
:103B9C000000000000000000000000000000000019
:103BAC000000000000000000000000000000000009
:103BBC0000000000000000000000000000000000F9
:103BCC0000000000000000000000000000000000E9
:103BDC0000000000000000000000000000000000D9
:0400000508000BD113
:00000001FF
